{"abi":[{"type":"function","name":"getLastReadings","inputs":[{"name":"_count","type":"uint256","internalType":"uint256"}],"outputs":[{"name":"","type":"tuple[]","internalType":"struct SensorRegistry.Reading[]","components":[{"name":"timestamp","type":"uint40","internalType":"uint40"},{"name":"temperature","type":"int16","internalType":"int16"},{"name":"humidity","type":"uint16","internalType":"uint16"}]}],"stateMutability":"view"},{"type":"function","name":"getReadingsCount","inputs":[],"outputs":[{"name":"","type":"uint256","internalType":"uint256"}],"stateMutability":"view"},{"type":"function","name":"logReading","inputs":[{"name":"_temp","type":"int16","internalType":"int16"},{"name":"_humidity","type":"uint16","internalType":"uint16"}],"outputs":[],"stateMutability":"nonpayable"},{"type":"function","name":"readings","inputs":[{"name":"","type":"uint256","internalType":"uint256"}],"outputs":[{"name":"timestamp","type":"uint40","internalType":"uint40"},{"name":"temperature","type":"int16","internalType":"int16"},{"name":"humidity","type":"uint16","internalType":"uint16"}],"stateMutability":"view"},{"type":"event","name":"NewReading","inputs":[{"name":"timestamp","type":"uint256","indexed":true,"internalType":"uint256"},{"name":"temperature","type":"int16","indexed":false,"internalType":"int16"},{"name":"humidity","type":"uint16","indexed":false,"internalType":"uint16"}],"anonymous":false}],"bytecode":{"object":"0x608060405234801561001057600080fd5b506104b2806100206000396000f3fe608060405234801561001057600080fd5b506004361061004c5760003560e01c8063546457b3146100515780639782b15914610067578063d5da886d1461007c578063de6885b1146100b9575b600080fd5b6000546040519081526020015b60405180910390f35b61007a610075366004610341565b6100d9565b005b61008f61008a366004610387565b6101ce565b6040805164ffffffffff909416845260019290920b602084015261ffff169082015260600161005e565b6100cc6100c7366004610387565b61020f565b60405161005e91906103a0565b6040805160608101825264ffffffffff42818116808452600187810b6020860190815261ffff808916878901908152600080549485018155805296517f290decd9548b62a8d60345a988386fc84ba6bc95484008f6362f93160ef3e5639093018054925197518216600160381b0268ffff000000000000001998909216650100000000000266ffffffffffffff19909316939096169290921717949094169390931790915591517f8a1c63e8e9f9328e2a8ab152769d7f148b44c4695c5d375de2decdcdfcdb6208906101c1908690869060019290920b825261ffff16602082015260400190565b60405180910390a2505050565b600081815481106101de57600080fd5b60009182526020909120015464ffffffffff8116915065010000000000810460010b90600160381b900461ffff1683565b60005460609080831115610221578092505b60008367ffffffffffffffff81111561023c5761023c610408565b60405190808252806020026020018201604052801561028757816020015b604080516060810182526000808252602080830182905292820152825260001990920191018161025a5790505b50905060005b84811015610339576000816102a3600186610434565b6102ad9190610434565b815481106102bd576102bd61044d565b600091825260209182902060408051606081018252919092015464ffffffffff8116825265010000000000810460010b9382019390935261ffff600160381b9093049290921690820152825183908390811061031b5761031b61044d565b6020026020010181905250808061033190610463565b91505061028d565b509392505050565b6000806040838503121561035457600080fd5b82358060010b811461036557600080fd5b9150602083013561ffff8116811461037c57600080fd5b809150509250929050565b60006020828403121561039957600080fd5b5035919050565b602080825282518282018190526000919060409081850190868401855b828110156103fb578151805164ffffffffff16855286810151600190810b888701529086015161ffff168686015260609094019391860191016103bd565b5091979650505050505050565b634e487b7160e01b600052604160045260246000fd5b634e487b7160e01b600052601160045260246000fd5b818103818111156104475761044761041e565b92915050565b634e487b7160e01b600052603260045260246000fd5b6000600182016104755761047561041e565b506001019056fea264697066735822122058613c58bd0384ae4b557ce1392972e933bf7de153d040a538e6a74b10c5187f64736f6c63430008130033","linkReferences":{}},"methodIdentifiers":{"getLastReadings(uint256)":"de6885b1","getReadingsCount()":"546457b3","logReading(int16,uint16)":"9782b159","readings(uint256)":"d5da886d"},"id":0}